01 TRDLC PHS4U 0000000000        20230522074439                                                                                                                                                                                                                                                                                                                                                                                                                                                                     
1520240630083875712          PANL AS818J      HISPANO SUIZA       LILA  1F409A   000000000000700000000000000028000000000000000000NNN                                                                                                                                                                                                                                                N000000000000                0003827257LAMMENSCHANSWEG          00289                                                         
1520240630083875712          PANL WD910A      ZENOS               AARDBE1F409A   000000000000700000000000000003100000000000000000NNN                                                                                                                                                                                                                                                N000000000000                0008244373HAARLEMMERSTRAAT         00289                                                         
1520240630083875712          PANL PG750E      SUBARU              LEIGRI1F409A   000000000000700000000000000000200000000000000000NNN                                                                                                                                                                                                                                                N000000000000                0007616526LANGE MARE               00289                                                         
1520240630083875712          PANL SB506K      CUPRA               ROBIJN1F409A   000000000000700000000000000000200000000000000000NNN                                                                                                                                                                                                                                                N000000000000                00010525092E BINNENVESTGRACHT      00289                                                         
1520240630083875712          PANL IK239A      MCLAREN             MAGENT1F409A   000000000000700000000000000003100000000000000000NNN                                                                                                                                                                                                                                                N000000000000                0006148669PIETERSKERK-CHOORSTEEG   00289                                                         
1520240630083875712          PANL GP794Y      LEXUS               ZONNIG1F409A   000000000000700000000000000003100000000000000000NNN                                                                                                                                                                                                                                                N000000000000                0009280936JAN VAN HOUTKADE         00289                                                         
1520240630083875712          PANL VX724P      HYUNDAI             LILA  1F409A   000000000000700000000000000003100000000000000000NNN                                                                                                                                                                                                                                                N000000000000                0006834510MIDDELSTEGRACHT          00289                                                         
1520240630083875712          PANL VY743S      MASERATI            OESTER1F409A   000000000000700000000000000028000000000000000000NNN                                                                                                                                                                                                                                                N000000000000                0002524865SCHUTTERSVELD            00289                                                         
1520240630083875712          PANL UX427K      ABARTH              BOURGO1F409A   000000000000700000000000000028000000000000000000NNN                                                                                                                                                                                                                                                N000000000000                0001399745UITERSTEGRACHT           00289                                                         
1520240630083875712          PANL JT382O      LAND ROVER          ZANDKL1F409A   000000000000700000000000000028000000000000000000NNN                                                                                                                                                                                                                                                N000000000000                0000512189PIETERSKERK-CHOORSTEEG   00289                                                         
1520240630083875712          PANL LF735O      BORGWARD            SAFFRA1F409A   000000000000700000000000000000200000000000000000NNN                                                                                                                                                                                                                                                N000000000000                0001334376LEVENDAAL                00289                                                         
1520240630083875712          PANL NG079X      SINGER              GOUDGE1F409A   000000000000700000000000000028000000000000000000NNN                                                                                                                                                                                                                                                N000000000000                0002353685OUDE RIJN                00289                                                         
1520240630083875712          PANL WK307M      SAAB                MESSIN1F409A   000000000000700000000000000028000000000000000000NNN                                                                                                                                                                                                                                                N000000000000                0004661986OUDE HERENGRACHT         00289                                                         
1520240630083875712          PANL RH632Q      PEUGEOT             KERSEN1F409A   000000000000700000000000000003100000000000000000NNN                                                                                                                                                                                                                                                N000000000000                0007680888HAARLEMMERSTRAAT         00289                                                         
1520240630083875712          PANL QC551K      LADA                BEIGE 1F409A   000000000000700000000000000003100000000000000000NNN                                                                                                                                                                                                                                                N000000000000                0004359644OUDE VEST                00289                                                         
1520240630083875712          PANL XX763X      HOLDEN              KORAAL1F409A   000000000000700000000000000028000000000000000000NNN                                                                                                                                                                                                                                                N000000000000                0007621400HOGE RIJNDIJK            00289                                                         
1520240630083875712          PANL GB991Y      PANHARD             AARDBE1F409A   000000000000700000000000000000200000000000000000NNN                                                                                                                                                                                                                                                N000000000000                0008623140HOOIGRACHT               00289                                                         
1520240630083875712          PANL PZ010T      BOLLORé             VERMIL1F409A   000000000000700000000000000028000000000000000000NNN                                                                                                                                                                                                                                                N000000000000                0004322017PIETERSKERKHOF           00289                                                         
1520240630083875712          PANL UH540Y      DONKERVOORT         LAVEND1F409A   000000000000700000000000000003100000000000000000NNN                                                                                                                                                                                                                                                N000000000000                0002389417LOKHORSTSTRAAT           00289                                                         
1520240630083875712          PANL NW101Z      LEXUS               MEIKLO1F409A   000000000000700000000000000028000000000000000000NNN                                                                                                                                                                                                                                                N000000000000                0002164150VISMARKT                 00289                                                         
1520240630083875712          PANL XG816L      HOLDEN              STAALB1F409A   000000000000700000000000000000200000000000000000NNN                                                                                                                                                                                                                                                N000000000000                0004106212HOOGLANDSE KERKGRACHT    00289                                                         
1520240630083875712          PANL NH904P      FISKER              FUCHSI1F409A   000000000000700000000000000003100000000000000000NNN                                                                                                                                                                                                                                                N000000000000                0008329515DOEZASTRAAT              00289                                                         
1520240630083875712          PANL ET239N      MASERATI            GOUDGE1F409A   000000000000700000000000000003100000000000000000NNN                                                                                                                                                                                                                                                N000000000000                0006018467HERENSTRAAT              00289                                                         
1520240630083875712          PANL NB606F      MITSUBISHI          TERRAC1F409A   000000000000700000000000000003100000000000000000NNN                                                                                                                                                                                                                                                N000000000000                0008562431GARENMARKT               00289                                                         
1520240630083875712          PANL WV659Z      FORD                HELIOT1F409A   000000000000700000000000000000200000000000000000NNN                                                                                                                                                                                                                                                N000000000000                0006144952NIEUWE RIJN              00289                                                         
1520240630083875712          PANL WU805Z      BYD                 MOSTER1F409A   000000000000700000000000000028000000000000000000NNN                                                                                                                                                                                                                                                N000000000000                0003076130FLORIS VERSTERLAAN       00289                                                         
1520240630083875712          PANL EQ463I      POLESTAR            TURKOO1F409A   000000000000700000000000000003100000000000000000NNN                                                                                                                                                                                                                                                N000000000000                0006397980PAPENGRACHT              00289                                                         
1520240630083875712          PANL ZS672N      SSANGYONG           OKER  1F409A   000000000000700000000000000003100000000000000000NNN                                                                                                                                                                                                                                                N000000000000                0008448051GALGEWATER               00289                                                         
1520240630083875712          PANL EE902S      DACIA               ROOMWI1F409A   000000000000700000000000000003100000000000000000NNN                                                                                                                                                                                                                                                N000000000000                0004113387VOLLERSGRACHT            00289                                                         
1520240630083875712          PANL ZN445O      HONGQI              ROOMWI1F409A   000000000000700000000000000028000000000000000000NNN                                                                                                                                                                                                                                                N000000000000                0009349461OUDE MORSCH              00289                                                         
1520240630083875712          PANL CJ804F      BMW                 WATERM1F409A   000000000000700000000000000003100000000000000000NNN                                                                                                                                                                                                                                                N000000000000                00068883722E BINNENVESTGRACHT      00289                                                         
1520240630083875712          PANL VQ767X      HUMMER              ORCHID1F409A   000000000000700000000000000000200000000000000000NNN                                                                                                                                                                                                                                                N000000000000                0001515153STILLE RIJN              00289                                                         
1520240630083875712          PANL KR907U      SAAB                IVOOR 1F409A   000000000000700000000000000003100000000000000000NNN                                                                                                                                                                                                                                                N000000000000                0001808655HOOIGRACHT               00289                                                         
1520240630083875712          PANL UB111J      VECTOR              TURKOO1F409A   000000000000700000000000000000200000000000000000NNN                                                                                                                                                                                                                                                N000000000000                0001275032OOSTERKERKSTRAAT         00289                                                         
1520240630083875712          PANL XO585X      LOTUS               OLIJFG1F409A   000000000000700000000000000028000000000000000000NNN                                                                                                                                                                                                                                                N000000000000                0007089401HOOGLANDSE KERKGRACHT    00289                                                         
1520240630083875712          PANL BO159Q      INFINITI            ZONNIG1F409A   000000000000700000000000000028000000000000000000NNN                                                                                                                                                                                                                                                N000000000000                0009410503LAMMERMARKT              00289                                                         
1520240630083875712          PANL VT727N      VOLKSWAGEN          WATERM1F409A   000000000000700000000000000000200000000000000000NNN                                                                                                                                                                                                                                                N000000000000                0005159599LANGE MARE               00289                                                         
1520240630083875712          PANL TO786Q      POLESTAR            SMARAG1F409A   000000000000700000000000000028000000000000000000NNN                                                                                                                                                                                                                                                N000000000000                0002392415VIJF MEILAAN             00289                                                         
1520240630083875712          PANL MO785U      FERRARI             AQUAMA1F409A   000000000000700000000000000000200000000000000000NNN                                                                                                                                                                                                                                                N000000000000                0005321458KOREVAARSTRAAT           00289                                                         
1520240630083875712          PANL AX109R      BUICK               ANTRAC1F409A   000000000000700000000000000003100000000000000000NNN                                                                                                                                                                                                                                                N000000000000                0005056643SCHIPHOLWEG              00289                                                         
1520240630083875712          PANL QO738T      FERRARI             MESSIN1F409A   000000000000700000000000000000200000000000000000NNN                                                                                                                                                                                                                                                N000000000000                0006959040STEENSTRAAT              00289                                                         
1520240630083875712          PANL GL182B      DE TOMASO           BLOS  1F409A   000000000000700000000000000003100000000000000000NNN                                                                                                                                                                                                                                                N000000000000                0009853518OUDE SINGEL              00289                                                         
1520240630083875712          PANL PR169M      HONGQI              SALIEG1F409A   000000000000700000000000000000200000000000000000NNN                                                                                                                                                                                                                                                N000000000000                0009873461MORSWEG                  00289                                                         
1520240630083875712          PANL DO542H      SSANGYONG           MAGENT1F409A   000000000000700000000000000028000000000000000000NNN                                                                                                                                                                                                                                                N000000000000                0006175857TUINSTRAAT               00289                                                         
1520240630083875712          PANL WF387R      LOTUS               DIEPBL1F409A   000000000000700000000000000003100000000000000000NNN                                                                                                                                                                                                                                                N000000000000                0009829027OUDE VEST                00289                                                         
1520240630083875712          PANL RC295V      ALFA ROMEO          AZUURB1F409A   000000000000700000000000000028000000000000000000NNN                                                                                                                                                                                                                                                N000000000000                0008859176WITTE SINGEL             00289                                                         
1520240630083875712          PANL UD106A      ASCARI              ZONNIG1F409A   000000000000700000000000000028000000000000000000NNN                                                                                                                                                                                                                                                N000000000000                0006284871RIJNSBURGERWEG           00289                                                         
1520240630083875712          PANL QX981J      LUCID               MAHONI1F409A   000000000000700000000000000028000000000000000000NNN                                                                                                                                                                                                                                                N000000000000                0003453892KAASMARKT                00289                                                         
1520240630083875712          PANL ML166T      PROTON              TERRAC1F409A   000000000000700000000000000003100000000000000000NNN                                                                                                                                                                                                                                                N000000000000                0007180799RIJNSBURGERWEG           00289                                                         
1520240630083875712          PANL BX490X      RIVIAN              FUCHSI1F409A   000000000000700000000000000028000000000000000000NNN                                                                                                                                                                                                                                                N000000000000                0002710158LEVENDAAL                00289                                                         
1520240630083875712          PANL GP279P      FISKER              OKERGE1F409A   000000000000700000000000000000200000000000000000NNN                                                                                                                                                                                                                                                N000000000000                0002145824WITTE SINGEL             00289                                                         
1520240630083875712          PANL AP764E      TESLA               KASTAN1F409A   000000000000700000000000000000200000000000000000NNN                                                                                                                                                                                                                                                N000000000000                0007228640MORSWEG                  00289                                                         
1520240630083875712          PANL VO338S      CUPRA               ZONNIG1F409A   000000000000700000000000000000200000000000000000NNN                                                                                                                                                                                                                                                N000000000000                0003637354PLANTAGELAAN             00289                                                         
1520240630083875712          PANL EY500A      ZENVO               MAUVE 1F409A   000000000000700000000000000028000000000000000000NNN                                                                                                                                                                                                                                                N000000000000                0000465708LEVENDAAL                00289                                                         
1520240630083875712          PANL ZC203Q      SMART               OKER  1F409A   000000000000700000000000000028000000000000000000NNN                                                                                                                                                                                                                                                N000000000000                0004411722KOREVAARSTRAAT           00289                                                         
1520240630083875712          PANL VR363D      SPYKER              ZWART 1F409A   000000000000700000000000000003100000000000000000NNN                                                                                                                                                                                                                                                N000000000000                0004010378MORSWEG                  00289                                                         
1520240630083875712          PANL QR773N      INFINITI            SMARAG1F409A   000000000000700000000000000028000000000000000000NNN                                                                                                                                                                                                                                                N000000000000                0001947754WITTE SINGEL             00289                                                         
1520240630083875712          PANL SK920A      VOLKSWAGEN          STAALB1F409A   000000000000700000000000000028000000000000000000NNN                                                                                                                                                                                                                                                N000000000000                0004052096TURFMARKT                00289                                                         
1520240630083875712          PANL WA563L      BUICK               PAPAVE1F409A   000000000000700000000000000028000000000000000000NNN                                                                                                                                                                                                                                                N000000000000                0009172106NIEUWE MARE              00289                                                         
1520240630083875712          PANL BG859W      HISPANO SUIZA       VIOLET1F409A   000000000000700000000000000028000000000000000000NNN                                                                                                                                                                                                                                                N000000000000                0006964670KLOKSTEEG                00289                                                         
1520240630083875712          PANL BI420G      HUMMER              MINTGR1F409A   000000000000700000000000000000200000000000000000NNN                                                                                                                                                                                                                                                N000000000000                0006948027HERENSINGEL              00289                                                         
1520240630083875712          PANL KX206N      BUICK               AUBERG1F409A   000000000000700000000000000003100000000000000000NNN                                                                                                                                                                                                                                                N000000000000                0003791345NOORDEINDE               00289                                                         
1520240630083875712          PANL VE123H      SHELBY              DIEPPU1F409A   000000000000700000000000000003100000000000000000NNN                                                                                                                                                                                                                                                N000000000000                0004289533STILLE RIJN              00289                                                         
1520240630083875712          PANL CO373C      SSANGYONG           AZURBL1F409A   000000000000700000000000000000200000000000000000NNN                                                                                                                                                                                                                                                N000000000000                0008558844SCHUTTERSVELD            00289                                                         
1520240630083875712          PANL IN279N      DACIA               INDIGO1F409A   000000000000700000000000000003100000000000000000NNN                                                                                                                                                                                                                                                N000000000000                0009991021NIEUWE RIJN              00289                                                         
1520240630083875712          PANL HI926R      PEUGEOT             AZUURB1F409A   000000000000700000000000000000200000000000000000NNN                                                                                                                                                                                                                                                N000000000000                0007298229LANGEGRACHT              00289                                                         
1520240630083875712          PANL LX331H      LADA                HEMELS1F409A   000000000000700000000000000003100000000000000000NNN                                                                                                                                                                                                                                                N000000000000                0001793315STATIONSWEG              00289                                                         
1520240630083875712          PANL MV579X      DODGE               OSSENB1F409A   000000000000700000000000000028000000000000000000NNN                                                                                                                                                                                                                                                N000000000000                00094961452E BINNENVESTGRACHT      00289                                                         
1520240630083875712          PANL AG345X      PROTON              LIMOEN1F409A   000000000000700000000000000000200000000000000000NNN                                                                                                                                                                                                                                                N000000000000                0004528189UITERSTEGRACHT           00289                                                         
1520240630083875712          PANL HD580K      CHEVROLET           PAPAVE1F409A   000000000000700000000000000028000000000000000000NNN                                                                                                                                                                                                                                                N000000000000                0009615934RAPENBURG                00289                                                         
1520240630083875712          PANL MF295I      NISSAN              LIMOEN1F409A   000000000000700000000000000003100000000000000000NNN                                                                                                                                                                                                                                                N000000000000                0007169511WEDDESTEEG               00289                                                         
1520240630083875712          PANL FL067D      ABARTH              PIOENR1F409A   000000000000700000000000000028000000000000000000NNN                                                                                                                                                                                                                                                N000000000000                0009470740FLORIS VERSTERLAAN       00289                                                         
1520240630083875712          PANL HA507I      LINCOLN             BOURGO1F409A   000000000000700000000000000003100000000000000000NNN                                                                                                                                                                                                                                                N000000000000                0000101550KLOKSTEEG                00289                                                         
1520240630083875712          PANL LR859D      LANCIA              KOFFIE1F409A   000000000000700000000000000003100000000000000000NNN                                                                                                                                                                                                                                                N000000000000                0000974673NOORDERSTRAAT            00289                                                         
1520240630083875712          PANL GE729Z      SAAB                KARAME1F409A   000000000000700000000000000000200000000000000000NNN                                                                                                                                                                                                                                                N000000000000                0001471036KOREVAARSTRAAT           00289                                                         
1520240630083875712          PANL WK869X      LINCOLN             MAGENT1F409A   000000000000700000000000000000200000000000000000NNN                                                                                                                                                                                                                                                N000000000000                0008763814SCHUTTERSVELD            00289                                                         
1520240630083875712          PANL CC320E      KIA                 ZILVER1F409A   000000000000700000000000000003100000000000000000NNN                                                                                                                                                                                                                                                N000000000000                0007986802PRINSESSEKADE            00289                                                         
1520240630083875712          PANL QM408D      BMW                 PRUIM 1F409A   000000000000700000000000000000200000000000000000NNN                                                                                                                                                                                                                                                N000000000000                0006923099MORSSINGEL               00289                                                         
1520240630083875712          PANL UD944R      SINGER              CERULE1F409A   000000000000700000000000000000200000000000000000NNN                                                                                                                                                                                                                                                N000000000000                0004771064GROENHAZENGRACHT         00289                                                         
1520240630083875712          PANL VS864Y      VAUXHALL            MESSIN1F409A   000000000000700000000000000003100000000000000000NNN                                                                                                                                                                                                                                                N000000000000                0006001363PAPENGRACHT              00289                                                         
1520240630083875712          PANL VN511Y      BORGWARD            MAHONI1F409A   000000000000700000000000000003100000000000000000NNN                                                                                                                                                                                                                                                N000000000000                0003711177FLORIS VERSTERLAAN       00289                                                         
1520240630083875712          PANL BS647Y      LEXUS               PISTAC1F409A   000000000000700000000000000028000000000000000000NNN                                                                                                                                                                                                                                                N000000000000                0002601849HOOGLANDSE KERKGRACHT    00289                                                         
1520240630083875712          PANL WG640X      CITROëN             PIOENR1F409A   000000000000700000000000000000200000000000000000NNN                                                                                                                                                                                                                                                N000000000000                0002042450HOOIGRACHT               00289                                                         
1520240630083875712          PANL CC556U      PROTON              ROEST 1F409A   000000000000700000000000000028000000000000000000NNN                                                                                                                                                                                                                                                N000000000000                0006121793LAMMERMARKT              00289                                                         
1520240630083875712          PANL EQ660E      ZENVO               BOURGO1F409A   000000000000700000000000000000200000000000000000NNN                                                                                                                                                                                                                                                N000000000000                0000005966NOORDERSTRAAT            00289                                                         
1520240630083875712          PANL BF600D      CUPRA               AQUAMA1F409A   000000000000700000000000000000200000000000000000NNN                                                                                                                                                                                                                                                N000000000000                0002119021KAASMARKT                00289                                                         
1520240630083875712          PANL JU324P      KIA                 PISTAC1F409A   000000000000700000000000000003100000000000000000NNN                                                                                                                                                                                                                                                N000000000000                0003575097KAISERSTRAAT             00289                                                         
1520240630083875712          PANL GK362T      BUICK               MARINE1F409A   000000000000700000000000000028000000000000000000NNN                                                                                                                                                                                                                                                N000000000000                0002338622MIDDELSTEGRACHT          00289                                                         
1520240630083875712          PANL GI051Q      CHANGAN             LEIGRI1F409A   000000000000700000000000000000200000000000000000NNN                                                                                                                                                                                                                                                N000000000000                0001154616BINNENVESTGRACHT         00289                                                         
1520240630083875712          PANL CG886I      ASCARI              OESTER1F409A   000000000000700000000000000003100000000000000000NNN                                                                                                                                                                                                                                                N000000000000                0006817124LAMMENSCHANSWEG          00289                                                         
1520240630083875712          PANL AF993A      ŠKODA               OLIJFG1F409A   000000000000700000000000000000200000000000000000NNN                                                                                                                                                                                                                                                N000000000000                0003983608NIEUWSTRAAT              00289                                                         
1520240630083875712          PANL PJ336W      JAGUAR              BRIQUE1F409A   000000000000700000000000000003100000000000000000NNN                                                                                                                                                                                                                                                N000000000000                0002433576HOOGLANDSE KERKGRACHT    00289                                                         
1520240630083875712          PANL LQ800M      MASERATI            SAFFRA1F409A   000000000000700000000000000028000000000000000000NNN                                                                                                                                                                                                                                                N000000000000                0003388615LEVENDAAL                00289                                                         
1520240630083875712          PANL ZA355T      MASERATI            MAHONI1F409A   000000000000700000000000000028000000000000000000NNN                                                                                                                                                                                                                                                N000000000000                0005870516NOORDEINDE               00289                                                         
1520240630083875712          PANL CO196P      FERRARI             HAZELN1F409A   000000000000700000000000000028000000000000000000NNN                                                                                                                                                                                                                                                N000000000000                0000082398LANGEBRUG                00289                                                         
1520240630083875712          PANL AQ634S      BENTLEY             KARMOZ1F409A   000000000000700000000000000028000000000000000000NNN                                                                                                                                                                                                                                                N000000000000                0003983319VOLLERSGRACHT            00289                                                         
1520240630083875712          PANL XO868Y      BUICK               OLIJFG1F409A   000000000000700000000000000028000000000000000000NNN                                                                                                                                                                                                                                                N000000000000                0008807252OUDE MORSCH              00289                                                         
1520240630083875712          PANL OQ993J      ASTON MARTIN        KERSEN1F409A   000000000000700000000000000028000000000000000000NNN                                                                                                                                                                                                                                                N000000000000                0001132212NIEUWE RIJN              00289                                                         
1520240630083875712          PANL KQ893D      ROLLS-ROYCE         ROEST 1F409A   000000000000700000000000000028000000000000000000NNN                                                                                                                                                                                                                                                N000000000000                0006279673LOKHORSTSTRAAT           00289                                                         
1520240630083875712          PANL MR961Y      LAMBORGHINI         KOBALT1F409A   000000000000700000000000000000200000000000000000NNN                                                                                                                                                                                                                                                N000000000000                0001704559MORSWEG                  00289                                                         
1520240630083875712          PANL TF297H      HONGQI              KARAME1F409A   000000000000700000000000000028000000000000000000NNN                                                                                                                                                                                                                                                N000000000000                0004779386KORT RAPENBURG           00289                                                         
1520240630083875712          PANL XY406W      SINGER              VERMIL1F409A   000000000000700000000000000028000000000000000000NNN                                                                                                                                                                                                                                                N000000000000                0006361080UITERSTEGRACHT           00289                                                         
1520240630083875712          PANL RW668E      HISPANO SUIZA       AZUURB1F409A   000000000000700000000000000028000000000000000000NNN                                                                                                                                                                                                                                                N000000000000                0003862536WITTE SINGEL             00289                                                         
1520240630083875712          PANL HQ557B      SUBARU              CYAAN 1F409A   000000000000700000000000000028000000000000000000NNN                                                                                                                                                                                                                                                N000000000000                0003265189NIEUWE RIJN              00289                                                         
1520240630083875712          PANL TM210H      SUBARU              LEIGRI1F409A   000000000000700000000000000003100000000000000000NNN                                                                                                                                                                                                                                                N000000000000                0008993726PAPENGRACHT              00289                                                         
1520240630083875712          PANL WZ440X      ZENVO               PISTAC1F409A   000000000000700000000000000028000000000000000000NNN                                                                                                                                                                                                                                                N000000000000                0008892771KAASMARKT                00289                                                         
1520240630083875712          PANL RO383X      SEAT                KERSEN1F409A   000000000000700000000000000028000000000000000000NNN                                                                                                                                                                                                                                                N000000000000                0005941344BINNENVESTGRACHT         00289                                                         
1520240630083875712          PANL OL715G      RIVIAN              DIEPPU1F409A   000000000000700000000000000003100000000000000000NNN                                                                                                                                                                                                                                                N000000000000                0007244972OUDE MORSCH              00289                                                         
1520240630083875712          PANL XY404H      HISPANO SUIZA       STAALB1F409A   000000000000700000000000000000200000000000000000NNN                                                                                                                                                                                                                                                N000000000000                0002776656HAARLEMMERSTRAAT         00289                                                         
1520240630083875712          PANL WY674Z      HONDA               PAPAVE1F409A   000000000000700000000000000028000000000000000000NNN                                                                                                                                                                                                                                                N000000000000                0005300306PIETERSKERKHOF           00289                                                         
1520240630083875712          PANL XL642D      ALFA ROMEO          ROOMWI1F409A   000000000000700000000000000000200000000000000000NNN                                                                                                                                                                                                                                                N000000000000                0001487949MORSWEG                  00289                                                         
1520240630083875712          PANL NS715F      PERODUA             AUBERG1F409A   000000000000700000000000000003100000000000000000NNN                                                                                                                                                                                                                                                N000000000000                0006092673GEREGRACHT               00289                                                         
1520240630083875712          PANL ZD375R      HYUNDAI             LAVEND1F409A   000000000000700000000000000003100000000000000000NNN                                                                                                                                                                                                                                                N000000000000                0004314325OUDE MORSCH              00289                                                         
1520240630083875712          PANL LB384N      SPYKER              MINTGR1F409A   000000000000700000000000000003100000000000000000NNN                                                                                                                                                                                                                                                N000000000000                0006368725NOORDEINDE               00289                                                         
1520240630083875712          PANL HA772Y      ALFA ROMEO          HAZELN1F409A   000000000000700000000000000003100000000000000000NNN                                                                                                                                                                                                                                                N000000000000                0008098372OOSTERKERKSTRAAT         00289                                                         
1520240630083875712          PANL UH971F      TOYOTA              ECRU  1F409A   000000000000700000000000000028000000000000000000NNN                                                                                                                                                                                                                                                N000000000000                0002348189PIETERSKERKHOF           00289                                                         
1520240630083875712          PANL WQ646D      BYD                 LAVEND1F409A   000000000000700000000000000003100000000000000000NNN                                                                                                                                                                                                                                                N000000000000                0002750756HAARLEMMERSTRAAT         00289                                                         
1520240630083875712          PANL GL662J      HUMMER              TERRAC1F409A   000000000000700000000000000000200000000000000000NNN                                                                                                                                                                                                                                                N000000000000                0007673185HERENSINGEL              00289                                                         
1520240630083875712          PANL KY510H      RENAULT             JADE  1F409A   000000000000700000000000000003100000000000000000NNN                                                                                                                                                                                                                                                N000000000000                0003274772NIEUWE MARE              00289                                                         
1520240630083875712          PANL DC655H      SEAT                ABRIKO1F409A   000000000000700000000000000003100000000000000000NNN                                                                                                                                                                                                                                                N000000000000                0005378303KAISERSTRAAT             00289                                                         
1520240630083875712          PANL AH359P      MG                  ECRU  1F409A   000000000000700000000000000028000000000000000000NNN                                                                                                                                                                                                                                                N000000000000                0000351063OUDE MORSCH              00289                                                         
1520240630083875712          PANL OO570F      MAZDA               KOPER 1F409A   000000000000700000000000000003100000000000000000NNN                                                                                                                                                                                                                                                N000000000000                0009620591LOKHORSTSTRAAT           00289                                                         
1520240630083875712          PANL US739X      VECTOR              BRONS 1F409A   000000000000700000000000000000200000000000000000NNN                                                                                                                                                                                                                                                N000000000000                0004897350UITERSTEGRACHT           00289                                                         
1520240630083875712          PANL SH255Z      LAND ROVER          MINTGR1F409A   000000000000700000000000000028000000000000000000NNN                                                                                                                                                                                                                                                N000000000000                0008128535KOPPENHINKSTEEG          00289                                                         
1520240630083875712          PANL IV669Q      BYD                 LILA  1F409A   000000000000700000000000000028000000000000000000NNN                                                                                                                                                                                                                                                N000000000000                0009849120NOORDEINDE               00289                                                         
1520240630083875712          PANL KB077W      HUMMER              ABRIKO1F409A   000000000000700000000000000003100000000000000000NNN                                                                                                                                                                                                                                                N000000000000                0001903441WEDDESTEEG               00289                                                         
1520240630083875712          PANL ZQ297U      TESLA               NACHTB1F409A   000000000000700000000000000003100000000000000000NNN                                                                                                                                                                                                                                                N000000000000                0004470556HAARLEMMERSTRAAT         00289                                                         
1520240630083875712          PANL VG226M      PORSCHE             ROEST 1F409A   000000000000700000000000000000200000000000000000NNN                                                                                                                                                                                                                                                N000000000000                0000774755VOLLERSGRACHT            00289                                                         
1520240630083875712          PANL AT253R      FISKER              KERSEN1F409A   000000000000700000000000000028000000000000000000NNN                                                                                                                                                                                                                                                N000000000000                0008642794LANGEGRACHT              00289                                                         
1520240630083875712          PANL OQ365V      ZENVO               DIEPPU1F409A   000000000000700000000000000000200000000000000000NNN                                                                                                                                                                                                                                                N000000000000                0007104652FLORIS VERSTERLAAN       00289                                                         
1520240630083875712          PANL AB086Z      ARRINERA            KOBALT1F409A   000000000000700000000000000028000000000000000000NNN                                                                                                                                                                                                                                                N000000000000                0006862845ZIJLSINGEL               00289                                                         
1520240630083875712          PANL WN834D      SCION               NACHTB1F409A   000000000000700000000000000003100000000000000000NNN                                                                                                                                                                                                                                                N000000000000                0003151748LANGE MARE               00289                                                         
1520240630083875712          PANL OK335O      TESLA               ANTRAC1F409A   000000000000700000000000000000200000000000000000NNN                                                                                                                                                                                                                                                N000000000000                0003603217LANGEBRUG                00289                                                         
1520240630083875712          PANL DH812Z      LOTUS               OLIJFG1F409A   000000000000700000000000000003100000000000000000NNN                                                                                                                                                                                                                                                N000000000000                0005024177LOKHORSTSTRAAT           00289                                                         
1520240630083875712          PANL ZX644R      PANHARD             ZWART 1F409A   000000000000700000000000000003100000000000000000NNN                                                                                                                                                                                                                                                N000000000000                0001028536UITERSTEGRACHT           00289                                                         
1520240630083875712          PANL LO638K      PAGANI              ANTRAC1F409A   000000000000700000000000000000200000000000000000NNN                                                                                                                                                                                                                                                N000000000000                0003519542GARENMARKT               00289                                                         
1520240630083875712          PANL HA715Y      BUICK               BOURGO1F409A   000000000000700000000000000028000000000000000000NNN                                                                                                                                                                                                                                                N000000000000                0009001823HAAGWEG                  00289                                                         
1520240630083875712          PANL GF618S      HONDA               PISTAC1F409A   000000000000700000000000000000200000000000000000NNN                                                                                                                                                                                                                                                N000000000000                0004643402MARESINGEL               00289                                                         
1520240630083875712          PANL ZT480M      INFINITI            DRAKEN1F409A   000000000000700000000000000003100000000000000000NNN                                                                                                                                                                                                                                                N000000000000                0002644406LAMMERMARKT              00289                                                         
1520240630083875712          PANL ID660L      JAGUAR              AMBER 1F409A   000000000000700000000000000028000000000000000000NNN                                                                                                                                                                                                                                                N000000000000                0002640019OUDE RIJN                00289                                                         
1520240630083875712          PANL QN698E      ZENVO               IVOOR 1F409A   000000000000700000000000000000200000000000000000NNN                                                                                                                                                                                                                                                N000000000000                0007122827NIEUWSTEEG               00289                                                         
1520240630083875712          PANL WV675X      NISSAN              TURKOO1F409A   000000000000700000000000000003100000000000000000NNN                                                                                                                                                                                                                                                N000000000000                0008162225WITTE SINGEL             00289                                                         
1520240630083875712          PANL XW877V      ACURA               ANTRAC1F409A   000000000000700000000000000028000000000000000000NNN                                                                                                                                                                                                                                                N000000000000                0008807776LEVENDAAL                00289                                                         
1520240630083875712          PANL VB955U      WULING              LAVEND1F409A   000000000000700000000000000028000000000000000000NNN                                                                                                                                                                                                                                                N000000000000                0006450813LANGEBRUG                00289                                                         
1520240630083875712          PANL YZ314P      ŠKODA               LAVEND1F409A   000000000000700000000000000000200000000000000000NNN                                                                                                                                                                                                                                                N000000000000                0004774187HOGE RIJNDIJK            00289                                                         
1520240630083875712          PANL UK450P      PERODUA             AZUURB1F409A   000000000000700000000000000028000000000000000000NNN                                                                                                                                                                                                                                                N000000000000                0000922805HOOIGRACHT               00289                                                         
1520240630083875712          PANL WH296H      RAM                 KORAAL1F409A   000000000000700000000000000000200000000000000000NNN                                                                                                                                                                                                                                                N000000000000                0002432761NIEUWE RIJN              00289                                                         
1520240630083875712          PANL KA767U      RENAULT             GOUD  1F409A   000000000000700000000000000028000000000000000000NNN                                                                                                                                                                                                                                                N000000000000                0001503915KOPPENHINKSTEEG          00289                                                         
1520240630083875712          PANL LN177N      PEUGEOT             KASTAN1F409A   000000000000700000000000000000200000000000000000NNN                                                                                                                                                                                                                                                N000000000000                0009790760FLORIS VERSTERLAAN       00289                                                         
1520240630083875712          PANL DB348Q      BOLLORé             ZANDKL1F409A   000000000000700000000000000000200000000000000000NNN                                                                                                                                                                                                                                                N000000000000                0007848107NIEUWE RIJN              00289                                                         
1520240630083875712          PANL WR769K      FISKER              LAVEND1F409A   000000000000700000000000000028000000000000000000NNN                                                                                                                                                                                                                                                N000000000000                0003425013KAASMARKT                00289                                                         
1520240630083875712          PANL SA358D      BRILLIANCE          AZURBL1F409A   000000000000700000000000000003100000000000000000NNN                                                                                                                                                                                                                                                N000000000000                0000751272RIJNSBURGERWEG           00289                                                         
1520240630083875712          PANL AI725G      WULING              DIEPPU1F409A   000000000000700000000000000003100000000000000000NNN                                                                                                                                                                                                                                                N000000000000                0003272385NOORDEINDE               00289                                                         
1520240630083875712          PANL HS984W      LINCOLN             KORAAL1F409A   000000000000700000000000000028000000000000000000NNN                                                                                                                                                                                                                                                N000000000000                0006351747STILLE RIJN              00289                                                         
1520240630083875712          PANL WK264Y      DONKERVOORT         VERMIL1F409A   000000000000700000000000000003100000000000000000NNN                                                                                                                                                                                                                                                N000000000000                0003202717WITTE SINGEL             00289                                                         
1520240630083875712          PANL ZS867C      MAYBACH             ZALMRO1F409A   000000000000700000000000000028000000000000000000NNN                                                                                                                                                                                                                                                N000000000000                00037668922E BINNENVESTGRACHT      00289                                                         
1520240630083875712          PANL KS658K      SUZUKI              HOUTSK1F409A   000000000000700000000000000000200000000000000000NNN                                                                                                                                                                                                                                                N000000000000                0000499422LAMMERMARKT              00289                                                         
1520240630083875712          PANL NJ127T      DS AUTOMOBILES      SAFFRA1F409A   000000000000700000000000000028000000000000000000NNN                                                                                                                                                                                                                                                N000000000000                0000276595HAARLEMMERSTRAAT         00289                                                         
1520240630083875712          PANL HZ257G      PAGANI              LIMOEN1F409A   000000000000700000000000000003100000000000000000NNN                                                                                                                                                                                                                                                N000000000000                0008831236LANGE MARE               00289                                                         
1520240630083875712          PANL ID086M      FORD                LIMOEN1F409A   000000000000700000000000000000200000000000000000NNN                                                                                                                                                                                                                                                N000000000000                0003363630PAPENGRACHT              00289                                                         
1520240630083875712          PANL EK499V      KOENIGSEGG          ZANDKL1F409A   000000000000700000000000000003100000000000000000NNN                                                                                                                                                                                                                                                N000000000000                0009225953STILLE RIJN              00289                                                         
1520240630083875712          PANL TP070X      KOENIGSEGG          CERULE1F409A   000000000000700000000000000000200000000000000000NNN                                                                                                                                                                                                                                                N000000000000                0005744634MARESINGEL               00289                                                         
1520240630083875712          PANL VG572J      BMW                 AARDBE1F409A   000000000000700000000000000000200000000000000000NNN                                                                                                                                                                                                                                                N000000000000                0008629424ZEGERSTEEG               00289                                                         
1520240630083875712          PANL LS634U      ACURA               AZUURB1F409A   000000000000700000000000000003100000000000000000NNN                                                                                                                                                                                                                                                N000000000000                0006102202ZIJLSINGEL               00289                                                         
1520240630083875712          PANL FL631U      TESLA               SMARAG1F409A   000000000000700000000000000000200000000000000000NNN                                                                                                                                                                                                                                                N000000000000                0004452403HOOGLANDSE KERKGRACHT    00289                                                         
1520240630083875712          PANL LA099M      MASERATI            LAVEND1F409A   000000000000700000000000000003100000000000000000NNN                                                                                                                                                                                                                                                N000000000000                0002139547FLORIS VERSTERLAAN       00289                                                         
1520240630083875712          PANL PY578O      TESLA               ZANDKL1F409A   000000000000700000000000000003100000000000000000NNN                                                                                                                                                                                                                                                N000000000000                0002781704MIDDELSTEGRACHT          00289                                                         
1520240630083875712          PANL CU898M      AUDI                WATERM1F409A   000000000000700000000000000000200000000000000000NNN                                                                                                                                                                                                                                                N000000000000                0005690430LOKHORSTSTRAAT           00289                                                         
1520240630083875712          PANL NJ667O      TESLA               SALIEG1F409A   000000000000700000000000000000200000000000000000NNN                                                                                                                                                                                                                                                N000000000000                0003821637KOPPENHINKSTEEG          00289                                                         
1520240630083875712          PANL PX292Q      DS AUTOMOBILES      MESSIN1F409A   000000000000700000000000000003100000000000000000NNN                                                                                                                                                                                                                                                N000000000000                0004746730NIEUWE MARE              00289                                                         
1520240630083875712          PANL HK265H      ZENVO               AZUURB1F409A   000000000000700000000000000028000000000000000000NNN                                                                                                                                                                                                                                                N000000000000                0008885351BEESTENMARKT             00289                                                         
1520240630083875712          PANL OT036U      SCION               AQUAMA1F409A   000000000000700000000000000000200000000000000000NNN                                                                                                                                                                                                                                                N000000000000                0006909542MARESINGEL               00289                                                         
1520240630083875712          PANL ST443K      KIA                 KOPER 1F409A   000000000000700000000000000003100000000000000000NNN                                                                                                                                                                                                                                                N000000000000                0005122958MARESINGEL               00289                                                         
1520240630083875712          PANL EA842R      VECTOR              MANDAR1F409A   000000000000700000000000000000200000000000000000NNN                                                                                                                                                                                                                                                N000000000000                0009959560MIDDELSTEGRACHT          00289                                                         
1520240630083875712          PANL TJ698Z      MINI                MESSIN1F409A   000000000000700000000000000003100000000000000000NNN                                                                                                                                                                                                                                                N000000000000                0006920850GALGEWATER               00289                                                         
1520240630083875712          PANL WP384C      DONKERVOORT         ZAND  1F409A   000000000000700000000000000000200000000000000000NNN                                                                                                                                                                                                                                                N000000000000                0009921014PRINSESSEKADE            00289                                                         
1520240630083875712          PANL IR719G      SATURN              ANTRAC1F409A   000000000000700000000000000028000000000000000000NNN                                                                                                                                                                                                                                                N000000000000                0002559707PAPENGRACHT              00289                                                         
1520240630083875712          PANL UE433P      CATERHAM            OKERGE1F409A   000000000000700000000000000028000000000000000000NNN                                                                                                                                                                                                                                                N000000000000                0001645982PRINSESSEKADE            00289                                                         
1520240630083875712          PANL LL093F      PORSCHE             PRUIM 1F409A   000000000000700000000000000003100000000000000000NNN                                                                                                                                                                                                                                                N000000000000                0003798254OUDE MORSCH              00289                                                         
1520240630083875712          PANL LX579I      LEXUS               MESSIN1F409A   000000000000700000000000000028000000000000000000NNN                                                                                                                                                                                                                                                N000000000000                0005660762OUDE VEST                00289                                                         
1520240630083875712          PANL FS118B      SHELBY              DRAKEN1F409A   000000000000700000000000000028000000000000000000NNN                                                                                                                                                                                                                                                N000000000000                00069517972E BINNENVESTGRACHT      00289                                                         
1520240630083875712          PANL KN479Y      PERODUA             MUNT  1F409A   000000000000700000000000000000200000000000000000NNN                                                                                                                                                                                                                                                N000000000000                0006464984GALGEWATER               00289                                                         
1520240630083875712          PANL SO583O      HUMMER              ZALMRO1F409A   000000000000700000000000000003100000000000000000NNN                                                                                                                                                                                                                                                N000000000000                0003028277GALGEWATER               00289                                                         
1520240630083875712          PANL CD241L      HONDA               LAVEND1F409A   000000000000700000000000000000200000000000000000NNN                                                                                                                                                                                                                                                N000000000000                0000203406NIEUWE BEESTENMARKT      00289                                                         
1520240630083875712          PANL CB270D      MCLAREN             INDIGO1F409A   000000000000700000000000000003100000000000000000NNN                                                                                                                                                                                                                                                N000000000000                0006735725NIEUWE RIJN              00289                                                         
1520240630083875712          PANL TE321A      BORGWARD            KANARI1F409A   000000000000700000000000000003100000000000000000NNN                                                                                                                                                                                                                                                N000000000000                0005088009BEESTENMARKT             00289                                                         
1520240630083875712          PANL VL570F      LUCID               DIEPPU1F409A   000000000000700000000000000000200000000000000000NNN                                                                                                                                                                                                                                                N000000000000                0004537853LAMMERMARKT              00289                                                         
1520240630083875712          PANL EE686B      NISSAN              OLIJFG1F409A   000000000000700000000000000003100000000000000000NNN                                                                                                                                                                                                                                                N000000000000                0000889431NOORDEINDE               00289                                                         
1520240630083875712          PANL YM676Y      FERRARI             DRAKEN1F409A   000000000000700000000000000003100000000000000000NNN                                                                                                                                                                                                                                                N000000000000                0009758397GARENMARKT               00289                                                         
1520240630083875712          PANL SI053R      FISKER              LAVEND1F409A   000000000000700000000000000028000000000000000000NNN                                                                                                                                                                                                                                                N000000000000                0009845276HERENSTRAAT              00289                                                         
1520240630083875712          PANL FG137I      KIA                 BRIQUE1F409A   000000000000700000000000000028000000000000000000NNN                                                                                                                                                                                                                                                N000000000000                0004029300RAPENBURG                00289                                                         
1520240630083875712          PANL AH474D      ACURA               KANARI1F409A   000000000000700000000000000028000000000000000000NNN                                                                                                                                                                                                                                                N000000000000                0003699912BINNENVESTGRACHT         00289                                                         
1520240630083875712          PANL IB750O      FISKER              SIENNA1F409A   000000000000700000000000000028000000000000000000NNN                                                                                                                                                                                                                                                N000000000000                0007124977SCHIPHOLWEG              00289                                                         
1520240630083875712          PANL OI521D      MCLAREN             DRAKEN1F409A   000000000000700000000000000003100000000000000000NNN                                                                                                                                                                                                                                                N000000000000                0001245716PRINSESSEKADE            00289                                                         
1520240630083875712          PANL AF426J      BENTLEY             SMARAG1F409A   000000000000700000000000000028000000000000000000NNN                                                                                                                                                                                                                                                N000000000000                0006166662BREESTRAAT               00289                                                         
1520240630083875712          PANL WV483E      CATERHAM            HEMELS1F409A   000000000000700000000000000000200000000000000000NNN                                                                                                                                                                                                                                                N000000000000                0003554122MIDDELSTEGRACHT          00289                                                         
1520240630083875712          PANL LA575Z      TOYOTA              PERIWI1F409A   000000000000700000000000000028000000000000000000NNN                                                                                                                                                                                                                                                N000000000000                0003627678NIEUWE BEESTENMARKT      00289                                                         
1520240630083875712          PANL IJ060N      SMART               DIEPPU1F409A   000000000000700000000000000000200000000000000000NNN                                                                                                                                                                                                                                                N000000000000                0001821996LEVENDAAL                00289                                                         
1520240630083875712          PANL JA535K      VECTOR              IVOOR 1F409A   000000000000700000000000000000200000000000000000NNN                                                                                                                                                                                                                                                N000000000000                0004748437MIDDELSTEGRACHT          00289                                                         
