01 TRDLC PHS4U 0000000000        20230522074439                                                                                                                                                                                                                                                                                                                                                                                                                                                                     
1520240630082375712          PANL XF943N      SPYKER              SEPIA 1F409A   000000000000700000000000000003100000000000000000NNN                                                                                                                                                                                                                                                N000000000000                0009568151BINNENVESTGRACHT         00289                                                         
1520240630082375712          PANL DJ662M      VOLKSWAGEN          SAFFRA1F409A   000000000000700000000000000003100000000000000000NNN                                                                                                                                                                                                                                                N000000000000                0007858661UITERSTEGRACHT           00289                                                         
1520240630082375712          PANL TP054I      ACURA               WATERM1F409A   000000000000700000000000000003100000000000000000NNN                                                                                                                                                                                                                                                N000000000000                0009225786PIETERSKERK-CHOORSTEEG   00289                                                         
1520240630082375712          PANL OJ038X      CHEVROLET           OSSENB1F409A   000000000000700000000000000003100000000000000000NNN                                                                                                                                                                                                                                                N000000000000                0004249691NIEUWSTEEG               00289                                                         
1520240630082375712          PANL UR101N      HONDA               AUBERG1F409A   000000000000700000000000000003100000000000000000NNN                                                                                                                                                                                                                                                N000000000000                0008925338PAPENGRACHT              00289                                                         
1520240630082375712          PANL IT494L      ISUZU               AQUAMA1F409A   000000000000700000000000000000200000000000000000NNN                                                                                                                                                                                                                                                N000000000000                0009940577DE GENESTETSTRAAT        00289                                                         
1520240630082375712          PANL FV530Z      FIAT                ABRIKO1F409A   000000000000700000000000000028000000000000000000NNN                                                                                                                                                                                                                                                N000000000000                0003093541LEVENDAAL                00289                                                         
1520240630082375712          PANL OR981T      SINGER              BRIQUE1F409A   000000000000700000000000000028000000000000000000NNN                                                                                                                                                                                                                                                N000000000000                0008051193NIEUWSTEEG               00289                                                         
1520240630082375712          PANL LX640F      ASCARI              KERSEN1F409A   000000000000700000000000000003100000000000000000NNN                                                                                                                                                                                                                                                N000000000000                0002420088HOGE RIJNDIJK            00289                                                         
1520240630082375712          PANL VA056M      ZENVO               KORAAL1F409A   000000000000700000000000000000200000000000000000NNN                                                                                                                                                                                                                                                N000000000000                0001186532WEDDESTEEG               00289                                                         
1520240630082375712          PANL LA793K      AUDI                LICHTR1F409A   000000000000700000000000000000200000000000000000NNN                                                                                                                                                                                                                                                N000000000000                0004958144RAPENBURG                00289                                                         
1520240630082375712          PANL FY816W      MASERATI            DIEPPU1F409A   000000000000700000000000000003100000000000000000NNN                                                                                                                                                                                                                                                N000000000000                0002523142MIDDELSTEGRACHT          00289                                                         
1520240630082375712          PANL BM639W      JAGUAR              ANTRAC1F409A   000000000000700000000000000000200000000000000000NNN                                                                                                                                                                                                                                                N000000000000                0008228523UITERSTEGRACHT           00289                                                         
1520240630082375712          PANL NK161V      ALFA ROMEO          LAVEND1F409A   000000000000700000000000000028000000000000000000NNN                                                                                                                                                                                                                                                N000000000000                0005348837FLORIS VERSTERLAAN       00289                                                         
1520240630082375712          PANL TH523M      ABARTH              AMBER 1F409A   000000000000700000000000000003100000000000000000NNN                                                                                                                                                                                                                                                N000000000000                0002425974ZIJLSINGEL               00289                                                         
1520240630082375712          PANL FF621X      LAND ROVER          ZALMRO1F409A   000000000000700000000000000028000000000000000000NNN                                                                                                                                                                                                                                                N000000000000                0006795170OUDE HERENGRACHT         00289                                                         
1520240630082375712          PANL JG296M      DS AUTOMOBILES      SALIEG1F409A   000000000000700000000000000028000000000000000000NNN                                                                                                                                                                                                                                                N000000000000                0008504185HAAGWEG                  00289                                                         
1520240630082375712          PANL JF326C      CITROëN             PERIWI1F409A   000000000000700000000000000000200000000000000000NNN                                                                                                                                                                                                                                                N000000000000                0004614406PAPENGRACHT              00289                                                         
1520240630082375712          PANL XS218C      PORSCHE             TERRAC1F409A   000000000000700000000000000000200000000000000000NNN                                                                                                                                                                                                                                                N000000000000                0001381297LANGEBRUG                00289                                                         
1520240630082375712          PANL KZ809I      CADILLAC            AZUURB1F409A   000000000000700000000000000000200000000000000000NNN                                                                                                                                                                                                                                                N000000000000                0006903096PAPENGRACHT              00289                                                         
1520240630082375712          PANL GH837I      WULING              IJZIG 1F409A   000000000000700000000000000028000000000000000000NNN                                                                                                                                                                                                                                                N000000000000                0004927368NIEUWE BEESTENMARKT      00289                                                         
1520240630082375712          PANL ZY209L      OPEL                ABRIKO1F409A   000000000000700000000000000003100000000000000000NNN                                                                                                                                                                                                                                                N000000000000                0006527004WEDDESTEEG               00289                                                         
1520240630082375712          PANL CJ535S      JEEP                PAPAVE1F409A   000000000000700000000000000000200000000000000000NNN                                                                                                                                                                                                                                                N000000000000                0000711838HOOIGRACHT               00289                                                         
1520240630082375712          PANL YP458V      FIAT                TERRAC1F409A   000000000000700000000000000028000000000000000000NNN                                                                                                                                                                                                                                                N000000000000                0001762805BREESTRAAT               00289                                                         
1520240630082375712          PANL HP323I      HYUNDAI             GOUDGE1F409A   000000000000700000000000000003100000000000000000NNN                                                                                                                                                                                                                                                N000000000000                0006448944KAISERSTRAAT             00289                                                         
1520240630082375712          PANL ME891D      RENAULT             SAFFRA1F409A   000000000000700000000000000003100000000000000000NNN                                                                                                                                                                                                                                                N000000000000                0006462712GEREGRACHT               00289                                                         
1520240630082375712          PANL WW736I      BRILLIANCE          CERULE1F409A   000000000000700000000000000003100000000000000000NNN                                                                                                                                                                                                                                                N000000000000                0002389196OOSTERKERKSTRAAT         00289                                                         
1520240630082375712          PANL RR140X      DONKERVOORT         AZURBL1F409A   000000000000700000000000000028000000000000000000NNN                                                                                                                                                                                                                                                N000000000000                0004037225NIEUWE RIJN              00289                                                         
1520240630082375712          PANL IH232Z      MCLAREN             SALIEG1F409A   000000000000700000000000000028000000000000000000NNN                                                                                                                                                                                                                                                N000000000000                0007447334LANGEGRACHT              00289                                                         
1520240630082375712          PANL HE829A      HYUNDAI             ZANDKL1F409A   000000000000700000000000000000200000000000000000NNN                                                                                                                                                                                                                                                N000000000000                0008842071NIEUWE BEESTENMARKT      00289                                                         
1520240630082375712          PANL WI689C      FIAT                DRAKEN1F409A   000000000000700000000000000000200000000000000000NNN                                                                                                                                                                                                                                                N000000000000                0008922039HOOGLANDSE KERKGRACHT    00289                                                         
1520240630082375712          PANL KW028I      DONKERVOORT         KOPER 1F409A   000000000000700000000000000003100000000000000000NNN                                                                                                                                                                                                                                                N000000000000                0001233894SCHIPHOLWEG              00289                                                         
1520240630082375712          PANL XM822W      CHEVROLET           ZALMRO1F409A   000000000000700000000000000003100000000000000000NNN                                                                                                                                                                                                                                                N000000000000                0003269038GROENHAZENGRACHT         00289                                                         
1520240630082375712          PANL IM810P      CHRYSLER            SAFFRA1F409A   000000000000700000000000000028000000000000000000NNN                                                                                                                                                                                                                                                N000000000000                0007018692PIETERSKERKHOF           00289                                                         
1520240630082375712          PANL QV843T      TATA                CHARTR1F409A   000000000000700000000000000003100000000000000000NNN                                                                                                                                                                                                                                                N000000000000                0002188618PLANTAGELAAN             00289                                                         
1520240630082375712          PANL VB347Z      CHRYSLER            HEMELS1F409A   000000000000700000000000000000200000000000000000NNN                                                                                                                                                                                                                                                N000000000000                0006396858NIEUWE RIJN              00289                                                         
1520240630082375712          PANL RC199S      DONKERVOORT         ZWART 1F409A   000000000000700000000000000000200000000000000000NNN                                                                                                                                                                                                                                                N000000000000                0006913809LEVENDAAL                00289                                                         
1520240630082375712          PANL UR977M      MAYBACH             DENNEN1F409A   000000000000700000000000000003100000000000000000NNN                                                                                                                                                                                                                                                N000000000000                00049829182E BINNENVESTGRACHT      00289                                                         
1520240630082375712          PANL DA805X      ZENVO               TEAL  1F409A   000000000000700000000000000000200000000000000000NNN                                                                                                                                                                                                                                                N000000000000                0005651066NIEUWE RIJN              00289                                                         
1520240630082375712          PANL PA124M      KIA                 SIENNA1F409A   000000000000700000000000000000200000000000000000NNN                                                                                                                                                                                                                                                N000000000000                0004439388KOREVAARSTRAAT           00289                                                         
1520240630082375712          PANL TJ957D      SUZUKI              AMBER 1F409A   000000000000700000000000000000200000000000000000NNN                                                                                                                                                                                                                                                N000000000000                0001361861NOORDEINDE               00289                                                         
1520240630082375712          PANL LI353K      LAMBORGHINI         ZILVER1F409A   000000000000700000000000000028000000000000000000NNN                                                                                                                                                                                                                                                N000000000000                0003476997VIJF MEILAAN             00289                                                         
1520240630082375712          PANL YV147I      BYD                 MANDAR1F409A   000000000000700000000000000003100000000000000000NNN                                                                                                                                                                                                                                                N000000000000                0006471854PIETERSKERK-CHOORSTEEG   00289                                                         
1520240630082375712          PANL VZ735X      ARRINERA            GOUDGE1F409A   000000000000700000000000000028000000000000000000NNN                                                                                                                                                                                                                                                N000000000000                0002187424OUDE HERENGRACHT         00289                                                         
1520240630082375712          PANL NT848A      JAGUAR              HOUTSK1F409A   000000000000700000000000000000200000000000000000NNN                                                                                                                                                                                                                                                N000000000000                0004811950KOREVAARSTRAAT           00289                                                         
1520240630082375712          PANL RV177C      MINI                KARMOZ1F409A   000000000000700000000000000028000000000000000000NNN                                                                                                                                                                                                                                                N000000000000                0005165300NIEUWE RIJN              00289                                                         
1520240630082375712          PANL TO629X      ASTON MARTIN        STAALB1F409A   000000000000700000000000000000200000000000000000NNN                                                                                                                                                                                                                                                N000000000000                0003658668HAAGWEG                  00289                                                         
1520240630082375712          PANL LF078J      JEEP                SMARAG1F409A   000000000000700000000000000003100000000000000000NNN                                                                                                                                                                                                                                                N000000000000                0004170497NIEUWE MARE              00289                                                         
1520240630082375712          PANL LA936I      KOENIGSEGG          KORAAL1F409A   000000000000700000000000000028000000000000000000NNN                                                                                                                                                                                                                                                N000000000000                0002817764PAPENGRACHT              00289                                                         
1520240630082375712          PANL WM813K      GINETTA             HAZELN1F409A   000000000000700000000000000003100000000000000000NNN                                                                                                                                                                                                                                                N000000000000                0001500257UITERSTEGRACHT           00289                                                         
1520240630082375712          PANL BC016F      LAMBORGHINI         AARDBE1F409A   000000000000700000000000000028000000000000000000NNN                                                                                                                                                                                                                                                N000000000000                0005640094KORT RAPENBURG           00289                                                         
1520240630082375712          PANL LF658A      NISSAN              AUBERG1F409A   000000000000700000000000000028000000000000000000NNN                                                                                                                                                                                                                                                N000000000000                0001849343RIJNSBURGERWEG           00289                                                         
1520240630082375712          PANL CD728F      MINI                AZURBL1F409A   000000000000700000000000000000200000000000000000NNN                                                                                                                                                                                                                                                N000000000000                0006917572WITTE SINGEL             00289                                                         
1520240630082375712          PANL DP314A      AUDI                PERZIK1F409A   000000000000700000000000000000200000000000000000NNN                                                                                                                                                                                                                                                N000000000000                0001866206NIEUWSTEEG               00289                                                         
1520240630082375712          PANL DF167J      BRILLIANCE          AQUAMA1F409A   000000000000700000000000000003100000000000000000NNN                                                                                                                                                                                                                                                N000000000000                0006459688LOKHORSTSTRAAT           00289                                                         
1520240630082375712          PANL KJ675W      DAIHATSU            BEIGE 1F409A   000000000000700000000000000028000000000000000000NNN                                                                                                                                                                                                                                                N000000000000                0009856529UITERSTEGRACHT           00289                                                         
1520240630082375712          PANL KA834H      ISUZU               PERZIK1F409A   000000000000700000000000000000200000000000000000NNN                                                                                                                                                                                                                                                N000000000000                0001274292MORSSTRAAT               00289                                                         
1520240630082375712          PANL OT892H      ABARTH              AQUAMA1F409A   000000000000700000000000000000200000000000000000NNN                                                                                                                                                                                                                                                N000000000000                0007126696VOLMOLENGRACHT           00289                                                         
1520240630082375712          PANL QJ595K      TATA                CHARTR1F409A   000000000000700000000000000000200000000000000000NNN                                                                                                                                                                                                                                                N000000000000                0005248759OUDE SINGEL              00289                                                         
1520240630082375712          PANL NR463H      SMART               BRONS 1F409A   000000000000700000000000000003100000000000000000NNN                                                                                                                                                                                                                                                N000000000000                0000137071VOLMOLENGRACHT           00289                                                         
1520240630082375712          PANL HQ077J      RIVIAN              LAVEND1F409A   000000000000700000000000000003100000000000000000NNN                                                                                                                                                                                                                                                N000000000000                0004096298HOGEWOERD                00289                                                         
1520240630082375712          PANL UV726B      BAIC                LAVEND1F409A   000000000000700000000000000003100000000000000000NNN                                                                                                                                                                                                                                                N000000000000                0004970571STEENSTRAAT              00289                                                         
1520240630082375712          PANL WH698Z      TATA                OKERGE1F409A   000000000000700000000000000000200000000000000000NNN                                                                                                                                                                                                                                                N000000000000                0000227219FLORIS VERSTERLAAN       00289                                                         
1520240630082375712          PANL PJ137P      LINCOLN             MOSGRO1F409A   000000000000700000000000000003100000000000000000NNN                                                                                                                                                                                                                                                N000000000000                0003996760KAASMARKT                00289                                                         
1520240630082375712          PANL GQ093G      FORD                DENNEN1F409A   000000000000700000000000000003100000000000000000NNN                                                                                                                                                                                                                                                N000000000000                0001105604RIJNSBURGERWEG           00289                                                         
1520240630082375712          PANL AG534W      SATURN              AARDBE1F409A   000000000000700000000000000003100000000000000000NNN                                                                                                                                                                                                                                                N000000000000                0007772973DE GENESTETSTRAAT        00289                                                         
1520240630082375712          PANL TH083D      PANHARD             KOPER 1F409A   000000000000700000000000000003100000000000000000NNN                                                                                                                                                                                                                                                N000000000000                0003687615NIEUWSTRAAT              00289                                                         
1520240630082375712          PANL YT813H      FORD                KORAAL1F409A   000000000000700000000000000028000000000000000000NNN                                                                                                                                                                                                                                                N000000000000                0005840168TURFMARKT                00289                                                         
1520240630082375712          PANL OW252T      LUCID               DRAKEN1F409A   000000000000700000000000000028000000000000000000NNN                                                                                                                                                                                                                                                N000000000000                0004964176ZIJLSINGEL               00289                                                         
1520240630082375712          PANL CB093A      BAIC                KORAAL1F409A   000000000000700000000000000028000000000000000000NNN                                                                                                                                                                                                                                                N000000000000                0005513341HAARLEMMERSTRAAT         00289                                                         
1520240630082375712          PANL KD546W      AUDI                DIEPBL1F409A   000000000000700000000000000003100000000000000000NNN                                                                                                                                                                                                                                                N000000000000                0004181659KOPPENHINKSTEEG          00289                                                         
1520240630082375712          PANL PE008D      LADA                ORCHID1F409A   000000000000700000000000000028000000000000000000NNN                                                                                                                                                                                                                                                N000000000000                0007018447LOKHORSTSTRAAT           00289                                                         
1520240630082375712          PANL DV769G      CHEVROLET           ZAND  1F409A   000000000000700000000000000000200000000000000000NNN                                                                                                                                                                                                                                                N000000000000                0001537182KORT RAPENBURG           00289                                                         
1520240630082375712          PANL KL635I      CADILLAC            PERIWI1F409A   000000000000700000000000000000200000000000000000NNN                                                                                                                                                                                                                                                N000000000000                0007827017HERENSTEEG               00289                                                         
1520240630082375712          PANL CF305J      NISSAN              ECRU  1F409A   000000000000700000000000000000200000000000000000NNN                                                                                                                                                                                                                                                N000000000000                0006018576GROENHAZENGRACHT         00289                                                         
1520240630082375712          PANL CM114A      RENAULT             INDIGO1F409A   000000000000700000000000000028000000000000000000NNN                                                                                                                                                                                                                                                N000000000000                0001343687HOOIGRACHT               00289                                                         
1520240630082375712          PANL DG098Z      DS AUTOMOBILES      SALIEG1F409A   000000000000700000000000000000200000000000000000NNN                                                                                                                                                                                                                                                N000000000000                0001474078MORSSTRAAT               00289                                                         
1520240630082375712          PANL LK180C      HISPANO SUIZA       OLIJFG1F409A   000000000000700000000000000003100000000000000000NNN                                                                                                                                                                                                                                                N000000000000                0008977707HAARLEMMERSTRAAT         00289                                                         
1520240630082375712          PANL XN472E      PORSCHE             ECRU  1F409A   000000000000700000000000000000200000000000000000NNN                                                                                                                                                                                                                                                N000000000000                0003424622KORT RAPENBURG           00289                                                         
1520240630082375712          PANL UH643J      SAAB                KASTAN1F409A   000000000000700000000000000028000000000000000000NNN                                                                                                                                                                                                                                                N000000000000                0002587721PIETERSKERKSTRAAT        00289                                                         
1520240630082375712          PANL VC941G      FISKER              LAVEND1F409A   000000000000700000000000000000200000000000000000NNN                                                                                                                                                                                                                                                N000000000000                0003201286NOORDEINDE               00289                                                         
1520240630082375712          PANL UE565D      BOLLORé             LILA  1F409A   000000000000700000000000000028000000000000000000NNN                                                                                                                                                                                                                                                N000000000000                0008192172SCHUTTERSVELD            00289                                                         
1520240630082375712          PANL DK943J      BENTLEY             GOUDGE1F409A   000000000000700000000000000028000000000000000000NNN                                                                                                                                                                                                                                                N000000000000                0009562949SCHIPHOLWEG              00289                                                         
1520240630082375712          PANL WV515X      ASCARI              CHARTR1F409A   000000000000700000000000000028000000000000000000NNN                                                                                                                                                                                                                                                N000000000000                0003838489PIETERSKERK-CHOORSTEEG   00289                                                         
1520240630082375712          PANL AX211B      KIA                 GOUDGE1F409A   000000000000700000000000000000200000000000000000NNN                                                                                                                                                                                                                                                N000000000000                0002996509OUDE VEST                00289                                                         
1520240630082375712          PANL DZ327Q      DONKERVOORT         OSSENB1F409A   000000000000700000000000000003100000000000000000NNN                                                                                                                                                                                                                                                N000000000000                0000174092LANGEBRUG                00289                                                         
1520240630082375712          PANL WU586V      HYUNDAI             KASTAN1F409A   000000000000700000000000000028000000000000000000NNN                                                                                                                                                                                                                                                N000000000000                0007287988HAARLEMMERSTRAAT         00289                                                         
1520240630082375712          PANL RN386A      BOLLORé             GOUDGE1F409A   000000000000700000000000000003100000000000000000NNN                                                                                                                                                                                                                                                N000000000000                0006374328FLORIS VERSTERLAAN       00289                                                         
1520240630082375712          PANL OV554O      POLESTAR            BLOS  1F409A   000000000000700000000000000000200000000000000000NNN                                                                                                                                                                                                                                                N000000000000                0004299845NOORDEINDE               00289                                                         
1520240630082375712          PANL MO157O      WULING              MOSGRO1F409A   000000000000700000000000000000200000000000000000NNN                                                                                                                                                                                                                                                N000000000000                0002820743OUDE RIJN                00289                                                         
1520240630082375712          PANL HX505B      ASTON MARTIN        OKERGE1F409A   000000000000700000000000000028000000000000000000NNN                                                                                                                                                                                                                                                N000000000000                0006770058ZIJLSINGEL               00289                                                         
1520240630082375712          PANL XI748H      CUPRA               PERIWI1F409A   000000000000700000000000000000200000000000000000NNN                                                                                                                                                                                                                                                N000000000000                0007734828HOOGLANDSE KERKGRACHT    00289                                                         
1520240630082375712          PANL KD696S      CITROëN             AMBER 1F409A   000000000000700000000000000000200000000000000000NNN                                                                                                                                                                                                                                                N000000000000                0000825289HOOGLANDSE KERKGRACHT    00289                                                         
1520240630082375712          PANL KF609B      LINCOLN             AQUAMA1F409A   000000000000700000000000000028000000000000000000NNN                                                                                                                                                                                                                                                N000000000000                0002305091LAMMENSCHANSWEG          00289                                                         
1520240630082375712          PANL NQ095K      ACURA               KORAAL1F409A   000000000000700000000000000028000000000000000000NNN                                                                                                                                                                                                                                                N000000000000                0002666030OUDE HERENGRACHT         00289                                                         
1520240630082375712          PANL NP869N      GMC                 KANARI1F409A   000000000000700000000000000000200000000000000000NNN                                                                                                                                                                                                                                                N000000000000                0002419726LAMMERMARKT              00289                                                         
1520240630082375712          PANL KD486R      INFINITI            MOSTER1F409A   000000000000700000000000000003100000000000000000NNN                                                                                                                                                                                                                                                N000000000000                0004327241LEVENDAAL                00289                                                         
1520240630082375712          PANL DP412Q      LEXUS               MINTGR1F409A   000000000000700000000000000028000000000000000000NNN                                                                                                                                                                                                                                                N000000000000                0005257377KOREVAARSTRAAT           00289                                                         
1520240630082375712          PANL TP187Z      AUDI                MOSGRO1F409A   000000000000700000000000000028000000000000000000NNN                                                                                                                                                                                                                                                N000000000000                0001444152KLOKPOORT                00289                                                         
1520240630082375712          PANL GP276L      HOLDEN              GOUDGE1F409A   000000000000700000000000000028000000000000000000NNN                                                                                                                                                                                                                                                N000000000000                0007190651MIDDELSTEGRACHT          00289                                                         
1520240630082375712          PANL QC040E      VECTOR              MINTGR1F409A   000000000000700000000000000028000000000000000000NNN                                                                                                                                                                                                                                                N000000000000                0005229224STILLE RIJN              00289                                                         
1520240630082375712          PANL SE865N      LUCID               ROOMWI1F409A   000000000000700000000000000003100000000000000000NNN                                                                                                                                                                                                                                                N000000000000                0003997911HOGEWOERD                00289                                                         
1520240630082375712          PANL GV516D      PROTON              FUCHSI1F409A   000000000000700000000000000028000000000000000000NNN                                                                                                                                                                                                                                                N000000000000                0003134311KAASMARKT                00289                                                         
1520240630082375712          PANL QM914H      CHANGAN             INDIGO1F409A   000000000000700000000000000003100000000000000000NNN                                                                                                                                                                                                                                                N000000000000                0005743892NIEUWE MARE              00289                                                         
1520240630082375712          PANL RU285G      LANCIA              AUBERG1F409A   000000000000700000000000000028000000000000000000NNN                                                                                                                                                                                                                                                N000000000000                0004173900NIEUWE RIJN              00289                                                         
1520240630082375712          PANL JZ517W      HISPANO SUIZA       BEIGE 1F409A   000000000000700000000000000028000000000000000000NNN                                                                                                                                                                                                                                                N000000000000                0001266036HAARLEMMERSTRAAT         00289                                                         
1520240630082375712          PANL ZM721J      GMC                 KOFFIE1F409A   000000000000700000000000000028000000000000000000NNN                                                                                                                                                                                                                                                N000000000000                0002714290BEESTENMARKT             00289                                                         
1520240630082375712          PANL CE035R      LANCIA              MOSTER1F409A   000000000000700000000000000028000000000000000000NNN                                                                                                                                                                                                                                                N000000000000                0000855009VOLMOLENGRACHT           00289                                                         
1520240630082375712          PANL YJ738Q      HONGQI              ZWART 1F409A   000000000000700000000000000028000000000000000000NNN                                                                                                                                                                                                                                                N000000000000                0000442002PLANTSOEN                00289                                                         
1520240630082375712          PANL NL417U      DS AUTOMOBILES      ZAND  1F409A   000000000000700000000000000000200000000000000000NNN                                                                                                                                                                                                                                                N000000000000                0001428849TURFMARKT                00289                                                         
1520240630082375712          PANL EE609I      LAMBORGHINI         HEMELS1F409A   000000000000700000000000000003100000000000000000NNN                                                                                                                                                                                                                                                N000000000000                0005521882SCHIPHOLWEG              00289                                                         
1520240630082375712          PANL FV114C      CITROëN             LICHTR1F409A   000000000000700000000000000003100000000000000000NNN                                                                                                                                                                                                                                                N000000000000                0004630338PLANTSOEN                00289                                                         
1520240630082375712          PANL YQ645Y      ABARTH              LIMOEN1F409A   000000000000700000000000000028000000000000000000NNN                                                                                                                                                                                                                                                N000000000000                0006659064NIEUWE BEESTENMARKT      00289                                                         
1520240630082375712          PANL JT700L      TOYOTA              KORAAL1F409A   000000000000700000000000000000200000000000000000NNN                                                                                                                                                                                                                                                N000000000000                0003228464LANGEBRUG                00289                                                         
1520240630082375712          PANL NO031R      ISUZU               KANARI1F409A   000000000000700000000000000003100000000000000000NNN                                                                                                                                                                                                                                                N000000000000                0003706970HERENSTEEG               00289                                                         
1520240630082375712          PANL MD961D      GINETTA             DRAKEN1F409A   000000000000700000000000000000200000000000000000NNN                                                                                                                                                                                                                                                N000000000000                0004760873BINNENVESTGRACHT         00289                                                         
1520240630082375712          PANL BX001T      PEUGEOT             ROBIJN1F409A   000000000000700000000000000000200000000000000000NNN                                                                                                                                                                                                                                                N000000000000                0006308969TURFMARKT                00289                                                         
1520240630082375712          PANL CN838F      BUICK               MESSIN1F409A   000000000000700000000000000000200000000000000000NNN                                                                                                                                                                                                                                                N000000000000                0004522411NIEUWE BEESTENMARKT      00289                                                         
1520240630082375712          PANL CE875O      SHELBY              ORCHID1F409A   000000000000700000000000000000200000000000000000NNN                                                                                                                                                                                                                                                N000000000000                0007758002DOEZASTRAAT              00289                                                         
1520240630082375712          PANL SA449Q      PAGANI              OESTER1F409A   000000000000700000000000000000200000000000000000NNN                                                                                                                                                                                                                                                N000000000000                0003050002LOKHORSTSTRAAT           00289                                                         
1520240630082375712          PANL SL483N      ASTON MARTIN        ROEST 1F409A   000000000000700000000000000000200000000000000000NNN                                                                                                                                                                                                                                                N000000000000                0008659241MIDDELSTEGRACHT          00289                                                         
1520240630082375712          PANL TO398R      LAND ROVER          AMETHI1F409A   000000000000700000000000000028000000000000000000NNN                                                                                                                                                                                                                                                N000000000000                0003682255KORT RAPENBURG           00289                                                         
1520240630082375712          PANL PU505Y      ASTON MARTIN        DRAKEN1F409A   000000000000700000000000000028000000000000000000NNN                                                                                                                                                                                                                                                N000000000000                0000392918MORSSTRAAT               00289                                                         
1520240630082375712          PANL HU314B      TOYOTA              KASTAN1F409A   000000000000700000000000000003100000000000000000NNN                                                                                                                                                                                                                                                N000000000000                0005680929VIJF MEILAAN             00289                                                         
1520240630082375712          PANL JP764W      SATURN              VERMIL1F409A   000000000000700000000000000003100000000000000000NNN                                                                                                                                                                                                                                                N000000000000                0005098627STATIONSWEG              00289                                                         
1520240630082375712          PANL EZ167N      SSANGYONG           KASTAN1F409A   000000000000700000000000000000200000000000000000NNN                                                                                                                                                                                                                                                N000000000000                0001217610HOOGLANDSE KERKGRACHT    00289                                                         
1520240630082375712          PANL BO323T      LYNK & CO           IJZIG 1F409A   000000000000700000000000000028000000000000000000NNN                                                                                                                                                                                                                                                N000000000000                0006652402MORSSINGEL               00289                                                         
1520240630082375712          PANL IV357J      SPYKER              LAVEND1F409A   000000000000700000000000000028000000000000000000NNN                                                                                                                                                                                                                                                N000000000000                0000351169LAMMERMARKT              00289                                                         
1520240630082375712          PANL JK536L      MITSUBISHI          PIOENR1F409A   000000000000700000000000000003100000000000000000NNN                                                                                                                                                                                                                                                N000000000000                0000540659NIEUWE MARE              00289                                                         
1520240630082375712          PANL XG154D      KOENIGSEGG          VIOLET1F409A   000000000000700000000000000028000000000000000000NNN                                                                                                                                                                                                                                                N000000000000                0008090872LANGE MARE               00289                                                         
1520240630082375712          PANL KD355J      MAYBACH             VIOLET1F409A   000000000000700000000000000003100000000000000000NNN                                                                                                                                                                                                                                                N000000000000                0005433921NIEUWSTRAAT              00289                                                         
1520240630082375712          PANL DH156W      FERRARI             KASTAN1F409A   000000000000700000000000000028000000000000000000NNN                                                                                                                                                                                                                                                N000000000000                0006147885STEENSTRAAT              00289                                                         
1520240630082375712          PANL GM558Y      CHANGAN             ZANDKL1F409A   000000000000700000000000000000200000000000000000NNN                                                                                                                                                                                                                                                N000000000000                0008564202OUDE VEST                00289                                                         
1520240630082375712          PANL XV720S      KIA                 LIMOEN1F409A   000000000000700000000000000028000000000000000000NNN                                                                                                                                                                                                                                                N000000000000                0004803772OUDE HERENGRACHT         00289                                                         
1520240630082375712          PANL NG447P      VOLKSWAGEN          KORAAL1F409A   000000000000700000000000000028000000000000000000NNN                                                                                                                                                                                                                                                N000000000000                0006688244NIEUWSTEEG               00289                                                         
1520240630082375712          PANL MN887Q      CITROëN             MINTGR1F409A   000000000000700000000000000000200000000000000000NNN                                                                                                                                                                                                                                                N000000000000                0008988242GEREGRACHT               00289                                                         
1520240630082375712          PANL IA927L      DE TOMASO           KANARI1F409A   000000000000700000000000000028000000000000000000NNN                                                                                                                                                                                                                                                N000000000000                0009376938NOORDEINDE               00289                                                         
1520240630082375712          PANL EE717E      SCION               MARINE1F409A   000000000000700000000000000028000000000000000000NNN                                                                                                                                                                                                                                                N000000000000                0007473583BLAUWPOORTSBRUG          00289                                                         
1520240630082375712          PANL ZY920E      BAIC                LILA  1F409A   000000000000700000000000000003100000000000000000NNN                                                                                                                                                                                                                                                N000000000000                0005439345ZEGERSTEEG               00289                                                         
1520240630082375712          PANL KW958S      LINCOLN             STAALB1F409A   000000000000700000000000000028000000000000000000NNN                                                                                                                                                                                                                                                N000000000000                0002048210LANGE MARE               00289                                                         
1520240630082375712          PANL FY836T      TATA                DIEPBL1F409A   000000000000700000000000000003100000000000000000NNN                                                                                                                                                                                                                                                N000000000000                0001272235STILLE RIJN              00289                                                         
1520240630082375712          PANL VE297A      MINI                KASTAN1F409A   000000000000700000000000000000200000000000000000NNN                                                                                                                                                                                                                                                N000000000000                0001857751PRINSESSEKADE            00289                                                         
1520240630082375712          PANL CG537R      OPEL                KORAAL1F409A   000000000000700000000000000003100000000000000000NNN                                                                                                                                                                                                                                                N000000000000                0005667715HERENSINGEL              00289                                                         
1520240630082375712          PANL DY322Y      BAIC                JADE  1F409A   000000000000700000000000000003100000000000000000NNN                                                                                                                                                                                                                                                N000000000000                0003689089HOOIGRACHT               00289                                                         
1520240630082375712          PANL DU689N      MAYBACH             LAVEND1F409A   000000000000700000000000000003100000000000000000NNN                                                                                                                                                                                                                                                N000000000000                0001710728WEDDESTEEG               00289                                                         
1520240630082375712          PANL VL174T      CHEVROLET           PAPAVE1F409A   000000000000700000000000000000200000000000000000NNN                                                                                                                                                                                                                                                N000000000000                0003340324RIJNSBURGERWEG           00289                                                         
1520240630082375712          PANL ZC878A      ARRINERA            KOBALT1F409A   000000000000700000000000000028000000000000000000NNN                                                                                                                                                                                                                                                N000000000000                0000292851KLOKSTEEG                00289                                                         
1520240630082375712          PANL XM683R      ALFA ROMEO          KARAME1F409A   000000000000700000000000000003100000000000000000NNN                                                                                                                                                                                                                                                N000000000000                0006848049HOGEWOERD                00289                                                         
1520240630082375712          PANL ZT270L      MASERATI            ROBIJN1F409A   000000000000700000000000000003100000000000000000NNN                                                                                                                                                                                                                                                N000000000000                0005174507BREESTRAAT               00289                                                         
1520240630082375712          PANL JR900K      ASCARI              BLOS  1F409A   000000000000700000000000000000200000000000000000NNN                                                                                                                                                                                                                                                N000000000000                0001193933NIEUWE MARE              00289                                                         
1520240630082375712          PANL FU382B      KIA                 ABRIKO1F409A   000000000000700000000000000000200000000000000000NNN                                                                                                                                                                                                                                                N000000000000                0008880516BLAUWPOORTSBRUG          00289                                                         
1520240630082375712          PANL AA264O      NISSAN              CYAAN 1F409A   000000000000700000000000000028000000000000000000NNN                                                                                                                                                                                                                                                N000000000000                0006695364VOLMOLENGRACHT           00289                                                         
1520240630082375712          PANL JE229C      BENTLEY             BRONS 1F409A   000000000000700000000000000028000000000000000000NNN                                                                                                                                                                                                                                                N000000000000                0004764330VISMARKT                 00289                                                         
1520240630082375712          PANL WI494I      FORD                PISTAC1F409A   000000000000700000000000000003100000000000000000NNN                                                                                                                                                                                                                                                N000000000000                0002869298MORSWEG                  00289                                                         
1520240630082375712          PANL EP386G      SHELBY              MAGENT1F409A   000000000000700000000000000003100000000000000000NNN                                                                                                                                                                                                                                                N000000000000                0003894120UITERSTEGRACHT           00289                                                         
1520240630082375712          PANL XT092N      ASTON MARTIN        ZWART 1F409A   000000000000700000000000000003100000000000000000NNN                                                                                                                                                                                                                                                N000000000000                0006641041NIEUWE RIJN              00289                                                         
1520240630082375712          PANL PQ181W      AUDI                HELIOT1F409A   000000000000700000000000000028000000000000000000NNN                                                                                                                                                                                                                                                N000000000000                0008540209ZIJLSINGEL               00289                                                         
1520240630082375712          PANL TB463S      FERRARI             SALIEG1F409A   000000000000700000000000000028000000000000000000NNN                                                                                                                                                                                                                                                N000000000000                0000326566STEENSTRAAT              00289                                                         
1520240630082375712          PANL GA444P      SINGER              BRONS 1F409A   000000000000700000000000000028000000000000000000NNN                                                                                                                                                                                                                                                N000000000000                0002717243LANGEGRACHT              00289                                                         
1520240630082375712          PANL CA891Y      MAZDA               DIEPBL1F409A   000000000000700000000000000028000000000000000000NNN                                                                                                                                                                                                                                                N000000000000                0006964645STEENSTRAAT              00289                                                         
1520240630082375712          PANL NL774G      BOLLORé             ZALMRO1F409A   000000000000700000000000000003100000000000000000NNN                                                                                                                                                                                                                                                N000000000000                0002706308BINNENVESTGRACHT         00289                                                         
1520240630082375712          PANL AO712L      LINCOLN             LILA  1F409A   000000000000700000000000000003100000000000000000NNN                                                                                                                                                                                                                                                N000000000000                0004004497TUINSTRAAT               00289                                                         
1520240630082375712          PANL RA175M      ASCARI              ABRIKO1F409A   000000000000700000000000000003100000000000000000NNN                                                                                                                                                                                                                                                N000000000000                0008373690OUDE VEST                00289                                                         
1520240630082375712          PANL WJ857B      ASTON MARTIN        IJZIG 1F409A   000000000000700000000000000000200000000000000000NNN                                                                                                                                                                                                                                                N000000000000                0005846312NOORDERSTRAAT            00289                                                         
1520240630082375712          PANL IW637D      SMART               MAGENT1F409A   000000000000700000000000000028000000000000000000NNN                                                                                                                                                                                                                                                N000000000000                0007335306ZIJLSINGEL               00289                                                         
1520240630082375712          PANL ZW215Y      CHRYSLER            BEIGE 1F409A   000000000000700000000000000003100000000000000000NNN                                                                                                                                                                                                                                                N000000000000                0003720147VOLLERSGRACHT            00289                                                         
1520240630082375712          PANL FE315K      RAM                 KORAAL1F409A   000000000000700000000000000003100000000000000000NNN                                                                                                                                                                                                                                                N000000000000                0002810022OUDE VEST                00289                                                         
1520240630082375712          PANL QN579T      RIVIAN              GOUD  1F409A   000000000000700000000000000028000000000000000000NNN                                                                                                                                                                                                                                                N000000000000                0001305106BREESTRAAT               00289                                                         
1520240630082375712          PANL LC669V      FIAT                ROBIJN1F409A   000000000000700000000000000000200000000000000000NNN                                                                                                                                                                                                                                                N000000000000                0000207954OUDE SINGEL              00289                                                         
1520240630082375712          PANL CE556Z      PROTON              BOURGO1F409A   000000000000700000000000000000200000000000000000NNN                                                                                                                                                                                                                                                N000000000000                0008405930OUDE HERENGRACHT         00289                                                         
1520240630082375712          PANL ZO147C      PERODUA             HEMELS1F409A   000000000000700000000000000003100000000000000000NNN                                                                                                                                                                                                                                                N000000000000                0001187242KOREVAARSTRAAT           00289                                                         
1520240630082375712          PANL XI166N      VECTOR              LILA  1F409A   000000000000700000000000000028000000000000000000NNN                                                                                                                                                                                                                                                N000000000000                0007016984LANGEGRACHT              00289                                                         
1520240630082375712          PANL MQ145E      ABARTH              MINTGR1F409A   000000000000700000000000000028000000000000000000NNN                                                                                                                                                                                                                                                N000000000000                0003381680MARESINGEL               00289                                                         
1520240630082375712          PANL GF021J      MERCEDES-BENZ       KASTAN1F409A   000000000000700000000000000000200000000000000000NNN                                                                                                                                                                                                                                                N000000000000                0006820402HOOIGRACHT               00289                                                         
1520240630082375712          PANL RC111S      LUCID               ROOMWI1F409A   000000000000700000000000000028000000000000000000NNN                                                                                                                                                                                                                                                N000000000000                0004212174OUDE VEST                00289                                                         
1520240630082375712          PANL JY162L      SEAT                SAFFRA1F409A   000000000000700000000000000028000000000000000000NNN                                                                                                                                                                                                                                                N000000000000                0007431891SCHIPHOLWEG              00289                                                         
1520240630082375712          PANL OQ916I      LADA                MINTGR1F409A   000000000000700000000000000003100000000000000000NNN                                                                                                                                                                                                                                                N000000000000                0000348766OUDE RIJN                00289                                                         
1520240630082375712          PANL OP215A      DACIA               AQUAMA1F409A   000000000000700000000000000003100000000000000000NNN                                                                                                                                                                                                                                                N000000000000                0005207034HOOIGRACHT               00289                                                         
1520240630082375712          PANL GQ954S      SAAB                MANDAR1F409A   000000000000700000000000000028000000000000000000NNN                                                                                                                                                                                                                                                N000000000000                0003512775VIJF MEILAAN             00289                                                         
1520240630082375712          PANL ZB993W      FISKER              CYAAN 1F409A   000000000000700000000000000000200000000000000000NNN                                                                                                                                                                                                                                                N000000000000                0005158907NIEUWE RIJN              00289                                                         
1520240630082375712          PANL ZX688N      POLESTAR            SMARAG1F409A   000000000000700000000000000028000000000000000000NNN                                                                                                                                                                                                                                                N000000000000                0007788241KOREVAARSTRAAT           00289                                                         
1520240630082375712          PANL HX018C      CUPRA               WATERM1F409A   000000000000700000000000000000200000000000000000NNN                                                                                                                                                                                                                                                N000000000000                0009904938NIEUWE RIJN              00289                                                         
1520240630082375712          PANL UQ018B      DONKERVOORT         ROEST 1F409A   000000000000700000000000000028000000000000000000NNN                                                                                                                                                                                                                                                N000000000000                0008608902BREESTRAAT               00289                                                         
1520240630082375712          PANL RJ067N      OPEL                DIEPBL1F409A   000000000000700000000000000028000000000000000000NNN                                                                                                                                                                                                                                                N000000000000                0004403740KORT RAPENBURG           00289                                                         
1520240630082375712          PANL RA412M      RENAULT             MINTGR1F409A   000000000000700000000000000003100000000000000000NNN                                                                                                                                                                                                                                                N000000000000                0006397808ZIJLSINGEL               00289                                                         
1520240630082375712          PANL DL244Z      JEEP                PERZIK1F409A   000000000000700000000000000003100000000000000000NNN                                                                                                                                                                                                                                                N000000000000                0002044272PIETERSKERK-CHOORSTEEG   00289                                                         
1520240630082375712          PANL LE567G      CUPRA               ZWART 1F409A   000000000000700000000000000028000000000000000000NNN                                                                                                                                                                                                                                                N000000000000                0006428081PIETERSKERKSTRAAT        00289                                                         
1520240630082375712          PANL TZ555G      SUZUKI              MOSTER1F409A   000000000000700000000000000000200000000000000000NNN                                                                                                                                                                                                                                                N000000000000                0004560131GEREGRACHT               00289                                                         
1520240630082375712          PANL MT478H      CHRYSLER            ECRU  1F409A   000000000000700000000000000003100000000000000000NNN                                                                                                                                                                                                                                                N000000000000                0002776880LOKHORSTSTRAAT           00289                                                         
1520240630082375712          PANL DG116Y      HOLDEN              SEPIA 1F409A   000000000000700000000000000003100000000000000000NNN                                                                                                                                                                                                                                                N000000000000                0009858994UITERSTEGRACHT           00289                                                         
1520240630082375712          PANL PL378A      HONGQI              TERRAC1F409A   000000000000700000000000000003100000000000000000NNN                                                                                                                                                                                                                                                N000000000000                0003792443KLOKSTEEG                00289                                                         
1520240630082375712          PANL OC701W      HOLDEN              FUCHSI1F409A   000000000000700000000000000000200000000000000000NNN                                                                                                                                                                                                                                                N000000000000                0000511985OUDE MORSCH              00289                                                         
1520240630082375712          PANL HX654T      GENESIS             OSSENB1F409A   000000000000700000000000000003100000000000000000NNN                                                                                                                                                                                                                                                N000000000000                0004769533UITERSTEGRACHT           00289                                                         
1520240630082375712          PANL VW139L      FORD                HEMELS1F409A   000000000000700000000000000028000000000000000000NNN                                                                                                                                                                                                                                                N000000000000                0004881656OUDE SINGEL              00289                                                         
1520240630082375712          PANL VN007N      CHEVROLET           MOSTER1F409A   000000000000700000000000000000200000000000000000NNN                                                                                                                                                                                                                                                N000000000000                0009477522LEVENDAAL                00289                                                         
1520240630082375712          PANL KF563L      PEUGEOT             MEIKLO1F409A   000000000000700000000000000000200000000000000000NNN                                                                                                                                                                                                                                                N000000000000                0004118012HAAGWEG                  00289                                                         
1520240630082375712          PANL FE165O      KIA                 TURKOO1F409A   000000000000700000000000000000200000000000000000NNN                                                                                                                                                                                                                                                N000000000000                0006271367GANGETJE                 00289                                                         
1520240630082375712          PANL SR118I      ISUZU               TURKOO1F409A   000000000000700000000000000028000000000000000000NNN                                                                                                                                                                                                                                                N000000000000                0007565771UITERSTEGRACHT           00289                                                         
1520240630082375712          PANL GX280M      DS AUTOMOBILES      KASTAN1F409A   000000000000700000000000000028000000000000000000NNN                                                                                                                                                                                                                                                N000000000000                0006786921LAMMENSCHANSWEG          00289                                                         
